:02000000952F3A
:10000800FF00030E8301E8000A08E7008A01700870
:10001800A4007108A3007C08A2007D08A1000B1CA5
:100028007428D030FC00C930FD00FD0B1928FC0BEA
:100038001928000000005B28061E28280130AD00A2
:100048000030AE00A901AA01861E30280230AD009A
:100058000030AE00A901AA017328861E4128250890
:10006800013EF00000300318013E2607F100700839
:10007800A5007108A600AD01AE017328061E5A2816
:1000880000302606031D4A28003025060319582883
:1000980001302502F0000030031C013E2602F10069
:1000A8007008A5007108A600AD01AE0173280030E4
:1000B8002E06031D612800302D0603192028003064
:1000C8002E06031D692801302D060319312800303A
:1000D8002E06031D712802302D06031942280B1025
:1000E8000B1D84282908013EF00000300318013E4A
:1000F8002A07F1007008A9007108AA000B118101F4
:100108002408F0002308F1002208FC002108FD0063
:0E01180067088A00680E8300FF0E7F0E090044
:100126007B15FB1F9D280130F300F201F101F00160
:08013600FA0DF20CFF30080085
:0E013E00213083120313FD00FD0BA3280800DF
:10014C000F3083120313FC004730FD00FD0BAC286D
:0A015C00FC0BAC28000000000800B6
:0E016600F201F101F001F801F3010030080090
:10017400FB14FB1FC428FF30F300F200F100F00071
:08018400FA0DF20CFF30080037
:06018C0000000000080065
:08019200FA1FF213003008000F
:10019A00A0017208031DE2287108F2007008F1003C
:1001AA00F001A0157208031DE2287108F200F1019E
:1001BA00A011201672080319F0282008F302031D63
:1001CA00031CF4280310F21BF828F00DF10DF20DB0
:1001DA00F30BE828F4280130FC00B320FB28023096
:0E01EA00FC009320FB280430FC00C920080014
:1001F80083160313AD1B0329831288110529831263
:10020800881583162D1B0B29831208110D298312BB
:1002180008158316AD1A132983128810152983121D
:10022800881483162D1A1B29831208101D2983127E
:1002380008145F1821298816222988120816C62052
:1002480008128316AD192B29831288112D298312C0
:10025800881583162D19332983120811352983121D
:1002680008158316AD183B29831288103D2983127F
:10027800881483162D1843298312081045298312E0
:1002880008145F18492988164A2988120816C620B2
:0E02980008125F1C5129A62052299F20080041
:1002A6007B14FB1F5E29F201FA1FFF30F200F100FA
:0A02B600F000FA0DF20CFF30080012
:1002C0007C189629FC1867297C19B5296029A0019A
:1002D0007208031D87297108F2007008F100780880
:1002E000F000F801A0157208031D87297108F200BB
:1002F0007008F100F001A01120167208031D872973
:100300007108F200F101A01572080319A92920084B
:10031000F302031D031CAD290310F21B9629F80DEF
:10032000F00DF10DF20DF30B8D29AD297B1B701C27
:10033000B129F81FB129F00A0319F10A0319F20AC9
:10034000031DB129F20CF10CF00CF30A0319B529C5
:10035000B1290130FC00B320B8290230FC00932001
:10036000B8290430FC00C920B8290830FC00BA20A4
:040370000000080081
:1003740083120313FA017308031D7A147708031D0B
:10038400FA147A080319062A033A0319D1297A18A8
:10039400CE29F61F042A022AF21F022A042A72080E
:1003A4008039FA00F21376088039F6137A060319B5
:1003B400DF297A080319022A042A77087302031929
:1003C400E629031CFA29FE29760872020319ED298D
:1003D400031CFA29FE29750871020319F429031C68
:1003E400FA29FE29740870020319062A0318FE2943
:1003F400FA080319042A022AFA080319022A042A09
:10040400031408000310080003140315080008006F
:1004140083120313F801F9011030FC00710DF80D7B
:10042400F90D7408F8027508031C750FF902031816
:10043400222A7408F80775080318750FF9070310C2
:0A044400F00DF10DFC0B102A08006A
:10044E00831203135F1083162C08AD00FC205F147B
:02045E00080094
:10046000831203137008F8007108F0007208F1009D
:100470007308F200F301FB01FC019E30F300FA0166
:10048000F21F4E2AF809F009F109F209F80A0319D6
:10049000F00A0319F10A0319F20AFA170230FC00F4
:0404A00060210800CF
:0604A400FB15FF3008000B
:1004AA008312031372087606A000F801F901730893
:1004BA007702031C782A7708FD007308F7007D0885
:1004CA00F3007608FD007208F6007D08F200750850
:1004DA00FD007108F5007D08F1007408FD00700840
:1004EA00F4007D08F00077080319F12A7208FA006F
:1004FA00F217F61777087302F7000319AB2A0830C8
:10050A007702031CA12AF7007408F9007508F400A1
:10051A007608F500F60108307702031CA12AF700D5
:10052A007408F9007508F400F50108307702031C15
:10053A00A12A7A08F200F12A77080319AB2A0310D4
:10054A00F60CF50CF40CF90CF70BA42AA01FB82A28
:10055A00F909F409F509F609F90A0319F40A03195C
:10056A00F50A0319F60A7908F80774080318740FCC
:10057A00F00775080318750FF10776080318760F48
:10058A00F207A01BD12A031CE12AF20CF10CF00C91
:10059A00F80CF30FE12AED2A0318E52AF809F00905
:1005AA00F109F209F80A0319F00A0319F10A031901
:1005BA00F20A8030FA06E92A0130FC006021F32AA7
:1005CA000230FC006021F32A0430FC00CD20F32A1B
:1005DA000830FC00BA20F32A0030FC0000000800B2
:1005EA0083120313FB01FC01F801730803196D2B35
:1005FA007208FA00F2179E30F302F31F5D2BF3091B
:10060A00F30A08307302031C322BF300F80D70084A
:10061A00F8007108F0007208F100F2010830730264
:10062A00031C322BF300F80D7008F8007108F00073
:10063A00F10108307302031C322BF300F80D700825
:10064A00F800F00108307302031C322BF300F80D96
:10065A00F8017308031D03103C2B730803193C2B84
:10066A000310F20CF10CF00CF80CF30B352B7B1B7E
:10067A00781C4A2B031C4A2BF80A0319F00A03199F
:10068A00F10A0319F20AF21B6A2BFA1F6D2BF209FF
:10069A00F109F009F809F80A0319F00A0319F10A2D
:1006AA000319F20A6D2BF201F101F001F8016D2B29
:1006BA007B14FB1F702BF201FA1F702BF200F10062
:1006CA00F000F800FA0DF20C702B0130FC00722BCE
:1006DA000030FC00722BFF30FC00FC080319762B5B
:1006EA0053217208F3007108F2007008F1007808CB
:0406FA00F000080004
:1006FE00831203137408003A031D9A2B7508003AEF
:10070E00031D9A2B7608003A031D9A2B7708003AA0
:10071E00031D9A2BFF30F000FF30F1007F30F20006
:10072E00FF30F300352C8312031377080319292C9D
:10073E00730803192C2C720876068039FA00F2170A
:10074E00F617A0017208F8007108FC007008FD0091
:10075E007408FD027508031C750FFC027608031C55
:10076E00760FF802F801FC01FD01031CC52B0310E6
:10077E00F20CF10CF00CF80C0130A0007708F3022B
:10078E00031CCF2B7E302007F30703182F2CD42BFE
:10079E007E302007F307031C322C1830FA07FD0DAC
:1007AE00FC0DF80DF00DF10DF20DA00D7408F00218
:1007BE007508031C750FF1027608031C760FF20202
:1007CE00760DA004201CED2B7D14F82B7408F00779
:1007DE0075080318750FF10776080318760AF207E5
:1007EE007D10FA031F307A05031DD62B7B1B7D1C53
:1007FE001F2C0310F00DF10DF20DA00D7408F00278
:10080E007508031C750FF1027608031C760FF202B1
:10081E00760D20040139FD070318FC0A0319F80AA6
:10082E00031D1F2CF80CFC0CFD0CF30A03192F2CC6
:10083E00FA1FF8137808F2007C08F1007D08F0002A
:10084E000030342C01305222342C0230B320342CA0
:0E085E000430BA20342C08309320000008002B
:10086C00482C803083160313A2005B2CC030A200EE
:10087C005B2C9430A2005B2CD430A2005B2C80301B
:10088C00A2005B2C831603132208013A0319372CA0
:10089C002208023A03193C2C2208033A03193F2C74
:1008AC002208043A0319422C452C2303F000220899
:1008BC00F0077008A2007008AD00FC205F108316D2
:1008CC00A50125082407840000080319762C2508A7
:1008DC00240784000008AC0027228316A50A672C85
:0608EC0083125F140800F6
:1008F20083160313A30123082207840000080319A7
:100902008B2C2308220784000008AC0027228316C0
:06091200A30A7C2C080082
:1009180083160313A5010530250203189A2C250810
:100928002407840020308000A50A8F2C250824077E
:1009380084008001A50325082407A6000A30F400D6
:10094800F5012208F0002308F1000A227808F000D7
:100958007908F1003030F007831626088400700803
:1009680080000A30F400F5012208F0002308F100A5
:100978000A2270088316A2007108A30000307106CD
:10098800031DC82C00307006031DCB2CCD2CA503ED
:040998009F2C080088
:10099C00831603132508F000F101F201F301FF3077
:1009AC00F0050030F1057008AA007108AB007F302B
:1009BC007002F2000030031C013E7102F300720859
:1009CC00AA007308AB0080307306F0008030700210
:1009DC00031DF22C003072020318162D2208F400AD
:1009EC002308F5002408F6002508F700F001F101B2
:1009FC00F201F301BA210130031C0030F000700841
:100A0C0003190D2DF001F101F201F301672D0030F6
:100A1C00F0000030F1000030F2007F30F300672D61
:100A2C0083162B08003C031D1D2D2A08183C0318A7
:100A3C00282D2208F0002308F1002408F2002508D4
:100A4C00F300672D2208F0002308F1002408F200BF
:100A5C002508F300F522302270088316A6007108D1
:100A6C00A7007208A8007308A9002208F400230844
:100A7C00F5002408F6002508F700BA210130031808
:100A8C000030F000700803195E2D83162608F00064
:100A9C002708F1002808F2002908F3000030F400C0
:100AAC000030F5000030F6007F30F7005522672D3E
:100ABC0083162608F0002708F1002808F200290800
:040ACC00F30008002B
:100AD0008316031308128812081088100811881151
:100AE0008312081288128811081188100810A62095
:100AF000A620A620881408140816C6200812A620CE
:100B00000816C6200812A6200816C6200812A6201D
:100B100008100816C6200812A6200816C6200812BB
:100B2000881088150816C6200812A62088110814F7
:100B30000816C620081208100816C6200812A6209B
:100B40000816C620081208140816C6200812A62087
:100B500008100816C62008128815081588140814ED
:0C0B60000816C6200812A6205F1408002A
:0E0B6C00831203135E088A005D0882000800F1
:100B7A00831203137008F8007108F000F101F20102
:100B8A00F301FB01FC019630F300FA01F01FD32DAB
:100B9A00F809F009F80A0319F00AFA177008F100BF
:0C0BAA007808F000F801F201CD200800EE
:100BB60083120313EE01EF0169088316A000831266
:100BC6006A088316A100803083126A06F00080301E
:100BD6007002031DF02D003069020318012E01304A
:100BE600EE000030EF006908003C8316A000831277
:100BF6006A08031C013E8316A101A1028316200880
:100C0600A2002108A30083126B088316A4008C247B
:100C160006308312EC000030ED006D08003C031D29
:100C2600162E6C08003C0318312E6C086B07F20078
:100C360001306C02F0000030031C013E6D02F10031
:100C460070086B0784000008F000720884007008C2
:100C560080000130EC02031CED03102E6B088400AB
:100C6600203080006E086F0403194F2EEC01ED0151
:100C76006C086B0784000008203A031D462EEC0A18
:100C86000319ED0A3B2E0130EC02031CED036C0840
:0A0C96006B0784002D308000080079
:100CA0000030831203132606031D582E003025063C
:100CB000031D632E01308316A2000130A3003130E2
:100CC000A4003624842E80302606F00080303006C2
:100CD0007002031D6D2E2F082502031C782E013093
:100CE0008316A2000130A3004230A4003624842ED3
:100CF00001308316A2000130A3005330A400362433
:0A0D000060308316A2007924080079
:100D0A000030831203132E06031D8D2E00302D068C
:100D1A0003199F2E80302A06F00080302C067002BC
:100D2A00031D992E2B082902031C9F2EA901AA0133
:060D3A00AD01AE0108004E
:100D400083120313FB0173080319DD2E7208FA00E6
:100D5000F2178E30F302F31FE02EF309F30A083086
:100D60007302031CC32EF300F10D7208F100F201AF
:100D700008307302031CC32EF300F10DF101730858
:100D8000031D0310CB2E73080319CB2E0310F20C96
:100D9000F10CF30BC62E7B1B711CD52E031CD52E1C
:100DA000F10A0319F20AF21BEC2EFA1FEF2EF209D8
:100DB000F109F10A0319F20AEF2EF201F101EF2E07
:100DC0007B14FB1FF22EF201FA1FF22EFF30F2000D
:100DD000F100FA0DF20CF22E0130FC00F42E00307E
:100DE000FC00F42EFF30FC00FC080319F82E532100
:0A0DF0007108F0007208F10008001D
:100DFA00803083120313F000803026067002031D30
:100E0A00082F2508003C03180C2F06140D2F061076
:020E1A000800CE
:100E1C008312031326082806031D162F2708250600
:100E2C000319202F01308316AD00FC202508A700E4
:060E3C002608A8000800D2
:100E4200682501308316AD00FC200C308316AD00FE
:040E5200FC20080078
:100E5600BD3083120313EB003730EC000630ED0093
:100E66007A30EE006908F0006A08F100BD256B08CB
:100E7600F4006C08F5006D08F6006E08F7007F2395
:100E860070088316A2007108A3007208A4007308F4
:060E9600A500CE240800B7
:100E9C00B6258A110A128000840ADD0A0319DE0ABB
:080EAC00F003031D4E2F0800A6
:100EB40083120313EA01EB016908F2006908F300E5
:100EC400720884000008203A031D6D2F6A086B0421
:100ED400031D6D2F7A2F0130EA000030EB007208F9
:100EE40084000008F0007308840070088000F30A8E
:100EF4007208F100F20A710884000008003A031D28
:080F0400622F6908F0000800EB
:100F0C00FE3083160313860088018B158B178B1606
:0E0F1C000730810083128601880181010800E0
:100F2A00F027862721270130E9000030EA002B2725
:100F3A00A0267008AB007108AC002508E900260855
:100F4A00EA006030EB00DB256030E9005A270E2703
:0A0F5A005026FD268526A22FB12F98
:100FE00025308400383083120313F000B730DD0061
:080FF0000730DE004E27080067
:040F6E000034003417
:040F7200FF34FF3415
:040F7600003400340F
:040F7A00003400340B
:040F7E000034003407
:040F82000A340034F9
:100F860052344F344F344D342034493453342034A2
:100F960045344D3450345434593420343A34293499
:020FA600003415
:100FA80052344F344F344D34203449345334203480
:100FB800463455344C344C3420343A3428342034B4
:020FC8000034F3
:100FCA0043346F3475346E347434653472343A345D
:040FDA00203400348B
:02400E004A2F37
:00000001FF
