:02000000B82C1A
:10000800FF00030E8301AD000A08AE008A017008E4
:10001800A3007C08A2007D08A1000B1C4F28823099
:10002800FC00DD30FD00FD0B1728FC0B1728000035
:1000380000004228061E24280130A800A901AA01B0
:10004800861E2A280230A800A901AA014E28861E69
:100058003128A60A0319A70AA8014E28061E412816
:1000680000302706031D3A280030260603194028C9
:100078000130A602031CA703A8014E282808003A4D
:1000880003191E282808013A03192B282808023AC0
:10009800031932280B100B1D5628A90A0319AA0A9E
:1000A8000B1181012308F0002208FC002108FD0043
:0E00B8002E088A002D0E8300FF0E7F0E090019
:0E00C600F201F101F001F801F3010030080031
:1000D400FB14FB1F7428FF30F300F200F100F00062
:0800E400FA0DF20CFF300800D8
:0800EC00FA1FF21300300800B6
:1000F4007B15FB1F84280130F300F201F101F001AC
:08010400FA0DF20CFF300800B7
:10010C00A0017208031D9B287108F2007008F10011
:10011C00F001A0157208031D9B287108F200F10173
:10012C00A011201672080319A9282008F302031D38
:10013C00031CAD280310F21BB128F00DF10DF20DCC
:10014C00F30BA128AD280130FC006320B428023049
:0E015C00FC007A20B4280430FC007620080055
:10016A007B14FB1FC028F201FA1FFF30F200F100D6
:0A017A00F000FA0DF20CFF3008004F
:100184007C18F828FC18C9287C191729C228A00152
:100194007208031DE9287108F2007008F10078085C
:1001A400F000F801A0157208031DE9287108F20097
:1001B4007008F100F001A01120167208031DE9284F
:1001C4007108F200F101A015720803190B29200827
:1001D400F302031D031C0F290310F21BF828F80D6A
:1001E400F00DF10DF20DF30BEF280F297B1B701CA2
:1001F4001329F81F1329F00A0319F10A0319F20A43
:10020400031D1329F20CF10CF00CF30A031917293E
:1002140013290130FC0063201A290230FC007A20E3
:100224001A290430FC0076201A290830FC006A20C0
:0402340000000800BE
:1002380083120313FB01FC01F801730803199429C5
:100248007208FA00F2179E30F302F31F8429F309AB
:10025800F30A08307302031C5929F300F80D7008DB
:10026800F8007108F0007208F100F201083073021A
:10027800031C5929F300F80D7008F8007108F00004
:10028800F10108307302031C5929F300F80D7008B6
:10029800F800F00108307302031C5929F300F80D27
:1002A800F8017308031D03106329730803196329F0
:1002B8000310F20CF10CF00CF80CF30B5C297B1B0F
:1002C800781C7129031C7129F80A0319F00A03190B
:1002D800F10A0319F20AF21B9129FA1F9429F2096B
:1002E800F109F009F809F80A0319F00A0319F10AE3
:1002F8000319F20A9429F201F101F001F801942995
:100308007B14FB1F9729F201FA1F9729F200F100CD
:10031800F000F800FA0DF20C97290130FC00992939
:100328000030FC009929FF30FC00FC0803199D29C6
:10033800B5207208F3007108F2007008F10078081F
:04034800F0000800B9
:10034C0083120313FA017308031D7A147708031D33
:10035C00FA147A080319F229033A0319BD297A18F9
:10036C00BA29F61FF029EE29F21FEE29F02972089E
:10037C008039FA00F21376088039F6137A060319DD
:10038C00CB297A080319EE29F0297708730203198F
:10039C00D229031CE629EA29760872020319D92905
:1003AC00031CE629EA29750871020319E029031CCC
:1003BC00E629EA29740870020319F2290318EA29BC
:1003CC00FA080319F029EE29FA080319EE29F02985
:1003DC000314080003100800031403150800080098
:1003EC008312031372087606A000F801F901730852
:1003FC007702031C192A7708FD007308F7007D08A3
:10040C00F3007608FD007208F6007D08F20075080E
:10041C00FD007108F5007D08F1007408FD007008FE
:10042C00F4007D08F00077080319922A7208FA008C
:10043C00F217F61777087302F70003194C2A0830E5
:10044C007702031C422AF7007408F9007508F400BF
:10045C007608F500F60108307702031C422AF700F3
:10046C007408F9007508F400F50108307702031CD4
:10047C00422A7A08F200922A770803194C2A0310B0
:10048C00F60CF50CF40CF90CF70B452AA01F592AA5
:10049C00F909F409F509F609F90A0319F40A03191B
:1004AC00F50A0319F60A7908F80774080318740F8B
:1004BC00F00775080318750FF10776080318760F07
:1004CC00F207A01B722A031C822AF20CF10CF00C0E
:1004DC00F80CF30F822A8E2A0318862AF809F009E1
:1004EC00F109F209F80A0319F00A0319F10A0319C0
:1004FC00F20A8030FA068A2A0130FC00C220942AC3
:10050C000230FC00C220942A0430FC008620942A7D
:10051C000830FC006A20942A0030FC00000008001F
:06052C00FB15FF30080082
:10053200831203137008F8007108F0007208F100CA
:100542007308F200F301FB01FC019E30F300FA0193
:10055200F21FB72AF809F009F109F209F80A03199A
:10056200F00A0319F10A0319F20AFA170230FC0021
:04057200C22008009B
:10057600831203137408003A031DD62A7508003A3D
:10058600031DD62A7608003A031DD62A7708003AB4
:10059600031DD62AFF30F000FF30F1007F30F20055
:1005A600FF30F300712B8312031377080319652BB1
:1005B60073080319682B720876068039FA00F21759
:1005C600F617A0017208F8007108FC007008FD001B
:1005D6007408FD027508031C750FFC027608031CDF
:1005E600760FF802F801FC01FD01031C012B031034
:1005F600F20CF10CF00CF80C0130A0007708F302B5
:10060600031C0B2B7E302007F30703186B2B102BD4
:100616007E302007F307031C6E2B1830FA07FD0DFA
:10062600FC0DF80DF00DF10DF20DA00D7408F002A1
:100636007508031C750FF1027608031C760FF2028B
:10064600760DA004201C292B7D14342B7408F0078A
:1006560075080318750FF10776080318760AF2076E
:100666007D10FA031F307A05031D122B7B1B7D1CA0
:100676005B2B0310F00DF10DF20DA00D7408F002C6
:100686007508031C750FF1027608031C760FF2023B
:10069600760D20040139FD070318FC0A0319F80A30
:1006A600031D5B2BF80CFC0CFD0CF30A03196B2BDA
:1006B600FA1FF8137808F2007C08F1007D08F000B4
:1006C6000030702B01309622702B02306320702B85
:0E06D60004306A20702B08307A2000000800E3
:1006E400831203133808F000F101F201F301FF3023
:1006F400F0050030F1057008BD007108BE007F30C0
:100704007002F2000030031C013E7102F300720813
:10071400BD007308BE0080307306F00080307002A4
:10072400031D962B003072020318BA2B3508F4000F
:100734003608F5003708F6003808F700F001F10133
:10074400F201F301A6210130031C0030F00070080F
:100754000319B12BF001F101F201F301072C003070
:10076400F0000030F1000030F2007F30F300072C7D
:100774003E08003C031DC02B3D08183C0318CB2B3E
:100784003508F0003608F1003708F2003808F300A5
:10079400072C3508F0003608F1003708F200380855
:1007A400F3001C2199227008B9007108BA0072087C
:1007B400BB007308BC003508F4003608F5003708A0
:1007C400F6003808F700A621013003180030F000C5
:1007D40070080319FF2B3908F0003A08F1003B08B0
:1007E400F2003C08F3000030F4000030F500003063
:1007F400F6007F30F700F621072C3908F0003A089C
:0C080400F1003B08F2003C08F300080083
:10081000831203137008F8007108F000F101F2016F
:10082000F301FB01FC019630F300FA01F01F1E2CCE
:10083000F809F009F80A0319F00AFA177008F1002C
:0C0840007808F000F801F20186200800A2
:0E084C00831203132C088A002B088200080078
:10085A00BD3083120313B1003730B2000630B30043
:10086A007A30B4002F08F0003008F100082431086B
:10087A00F4003208F5003308F6003408F700BB220A
:10088A007008B5007108B6007208B7007308B8009E
:04089A0072230800BD
:10089E0083120313FB01730803198C2C7208FA00E0
:1008AE00F2178E30F302F31F8F2CF309F30A083080
:1008BE007302031C722CF300F10D7208F100F201A9
:1008CE0008307302031C722CF300F10DF101730852
:1008DE00031D03107A2C730803197A2C0310F20CE3
:1008EE00F10CF30B752C7B1B711C842C031C842CBC
:1008FE00F10A0319F20AF21B9B2CFA1F9E2CF20925
:10090E00F109F10A0319F20A9E2CF201F1019E2C53
:10091E007B14FB1FA12CF201FA1FA12CFF30F20059
:10092E00F100FA0DF20CA12C0130FC00A32C0030CA
:10093E00FC00A32CFF30FC00FC080319A72CB520EB
:0A094E007108F0007208F1000800C3
:1009580026248A110A128000840AAB0A0319AC0AF9
:08096800F003031DAC2C080094
:1009700083120313A401A501A601A701A801A901DF
:10098000AA010130AF000030B0002D244F247008C0
:10099000A4007108A500FE308316860088018B151F
:1009A0008B178B1607308100831286018801810125
:1009B000260888008030F000803027067002031D72
:1009C000E32C2608003C0318E72C0614E82C06103C
:1009D0002808003A0319FB2C80302A06F0008030EA
:1009E00025067002031DF62C24082902031CFB2C8B
:0A09F000A901AA01A801D82CFC2CD3
:02400E004A2F37
:00000001FF
